:02000004080AE8
:1000000000000A08B8670A0800000600060005019B
:0800100004027E05000000005F
:040018003C600A0836
:1000200009480A4908B5884205D0094A824202D0E7
:10003000121A05F091FF0748074A0021121A05F02D
:1000400096FF064808BD00BF0000002024670A088C
:100050006C00002070000020380D0020380D0020BA
:1000600070B502F003FC074B074C1E46E41AA408C7
:100070000025A54204D056F8253098470135F8E709
:1000800070BD00BFB4660A0818670A0800F052B9CC
:1000900008B500F055F9BDE8084002F0A9BB02F030
:1000A0007BB902F081B90078B0FA80F0400970475E
:1000B00001230370704710B5044600F01BFD0023B8
:1000C0002372204610BD38B5044601290D4684F838
:1000D00028102DD1FF223E2100F011FF20460222E0
:1000E000072100F0B2FE20460222002100F0ADFE02
:1000F00029462046022200F0A8FE02221146204690
:1001000000F0A3FE20460222032100F09EFE2046BE
:100110000222042100F099FE20460222052100F06F
:1001200094FE2046BDE838400222062100F08DBE34
:1001300061B90A2003F0B0F903F012FA04F10A01E0
:100140001E220220BDE8384001F090BF38BD0000FB
:10015000024B01221A7001F029BF00BF7400002079
:1001600010B504460121042003F096F90121052071
:1001700003F092F90121022003F08EF901210D20F4
:1001800003F08AF901210C2003F086F901210320F4
:1001900003F082F901210B2003F07EF900210B20EE
:1001A00003F08BF9204610BD01F000BF10B50446E6
:1001B0000449043002F09BF904F1140001F02EFC14
:1001C000204610BD77640A0810B50446143001F0CB
:1001D00037FC201D02F044F9204610BD10B504463E
:1001E00000F23C50FFF7F0FF04F28440FFF7ECFF11
:1001F00004F57370FFF7E8FF04F54570FFF7E4FFBF
:1002000004F51770FFF7E0FF04F5D270FFF7DCFF8D
:1002100004F1EC00FFF7D8FF04F13400FFF7D4FF3E
:10022000204602F01DF9204610BD000010B504461E
:100230003F4902F05CF904F1100000F066FE04F1A1
:10024000200000F062FE04F13400FFF7AFFF04F17C
:10025000EC00FFF7ABFF04F5D270FFF7A7FF04F542
:100260001770FFF7A3FF04F54570FFF79FFF04F534
:100270007370FFF79BFF04F28440FFF797FF04F2CF
:100280003C50FFF793FF04F2F450FFF769FF04F5C9
:10029000BF60FFF710FF04F2246000F035FB04F2AA
:1002A0003C6000F067F8012384F84236022384F8AA
:1002B000433600230022C4F86436C4F86836C4F814
:1002C000B436C4F8B836C4F8BC36C4F8C036C4F87E
:1002D000C436C4F8C836C4F8CC36C4F8D036C4F82E
:1002E000D436C4F8D836C4F8DC36C4F8E03600207A
:1002F00004F5C863002184F8402684F84126C4F838
:100300005826C4F85C26C4F86026C4F86C26C4F8E5
:100310007026C4F87426C3E93201C3E93401C3E985
:10032000360184F8202784F82127204610BD00BF1D
:1003300077640A08014800F025B900BF7800002062
:10034000014800F0B2B800BF7800002010B5064C9C
:1003500001F02CFE2046FFF769FF2046BDE8104063
:10036000024A034903F048B97800002070000020D9
:10037000DD010A0810B504460121132003F08CF8B2
:100380000121122003F088F80121112003F084F8E4
:10039000204610BD01F00ABE30B4036812685868E8
:1003A0009C6810F0010F4FEA600018BF25581B68C9
:1003B000204418BFEB58096830BC184730B50546D3
:1003C00085B008460E49144605F002FEA8B90D494D
:1003D000204605F0FDFD10B902F032F80DE0294687
:1003E000684602F0C3F82046009905F0F1FD044686
:1003F000684602F035F8002CEED005B030BD00BFE5
:1004000050600A0856600A0870B588B01446054660
:1004100002F0FEFD1149064604A802F068F82146E4
:10042000684602F064F8694604A802F0DAF8016848
:10043000304602F017F9684602F012F804A802F0FC
:100440000FF8214604A802F052F804A9284602F049
:1004500098F804A802F004F808B070BD5A600A08C1
:10046000022A38B5044605D0032A0FD0012A11D13B
:100470000B6809E00C200D68FFF711FE034618B168
:1004800095E8070083E80700236003E00C2100687B
:1004900003F0B7F8002038BD10B58368044613B1E7
:1004A000032201469847204610BD10B5044600F5CA
:1004B000C86000F02DF904F22460BDE8104000F09F
:1004C00060BA10B5044603F077F83E2102F0F1FE61
:1004D00003F072F802F0F4FE08B9012300E00023F3
:1004E00084F8303010BD38B5002383608B68044633
:1004F0000D462BB102229847EB68E360AB68A3601E
:10050000204638BDF0B58DB0054602A880E806004B
:1005100000240C201E460F460694FFF7C0FD10B1C4
:10052000076044608660144B04900793134B04A942
:1005300008A80693FFF7D7FF0A9B0BB9002412E027
:100540001020FFF7ACFD04460028F7D008A9FFF7FC
:10055000CAFF00230193009322460123084928463D
:1005600001F00AFF044608A8FFF796FF04A8FFF76A
:1005700093FF20460DB0F0BD99030A0861040A08F4
:1005800055290A0830B5044689B002F041FD4FF400
:10059000164102F023FD394B00250493059504AA6A
:1005A00006CA23463648FFF7ADFF364B079506933C
:1005B00008AA12E9060023463348FFF7A3FF334B8E
:1005C0002A461B7832498DF8003002A83C2302F0FD
:1005D000C9FA039D7DB16B68013B6B605BB92B6809
:1005E00028469B689847AB68013BAB601BB92B68FA
:1005F0002846DB6898474FF4FA6002F09FF802F053
:10060000DBFF02F03BFE04F5C86000F04DF8204629
:10061000FFF757FF94F8301004F5BF60FFF753FD64
:1006200004F13400002100F015FA04F1EC0004217B
:1006300000F010FA04F54570012100F00BFA04F502
:10064000D270022100F006FA04F28440032100F087
:1006500001FA04F23C50052100F0FCF904F5177092
:10066000062100F0F7F904F57370072100F0F2F9A4
:100670000849204601F08DFF09B030BD09040A0881
:1006800071600A08BD030A0850600A08A00700202C
:1006900078600A0877640A08024B00221A7001F099
:1006A00085BC00BFA007002038B57522682104462C
:1006B00000F0C9FC71281ED1012584F8E05002F039
:1006C000A7FC104901F0CEFF04F1A401204684F8F4
:1006D000E15000F085FF4FF4967002F02FF82046AD
:1006E00004F1980204F18C0100F09AFD2046BDE867
:1006F000384000F0C8BC02F08BFCBDE8384002492D
:1007000001F0B0BF8A600A0898600A080000000083
:100710002DE9F0413A226821044600F094FCC30719
:1007200041D504F1BC01204600F039FD204600F01F
:1007300041FC656CB4F9BC0005F0E6F9294605F00A
:1007400037FA2065B4F9BE0005F0DEF9294605F058
:100750002FFA6065B4F9C00005F0D6F9294605F016
:1007600027FA04F13801A065204600F038FD204644
:1007700000F008FCA56CB4F9380005F0C5F929466D
:1007800005F016FAE065B4F93A0005F0BDF929461E
:1007900005F00EFA2066B4F93C0005F0B5F92946DB
:1007A00005F006FA6066204600F018FC656E002130
:1007B000284605F0B9FB08B905F10045284604F0C4
:1007C00075FD35A3D3E9002305F036F808B1002301
:1007D0006366616A606E05F0EBF904F067FD02463E
:1007E0000B46D4E9320104F003FCC4E93201A06DE8
:1007F00004F05CFD06460F46206D00F1004004F059
:1008000055FD32463B4603F049F825A3D3E90023C2
:1008100001F10047394604F09DFDC4E93601606DE1
:1008200004F044FD0F46A16D0646084605F0C0F9E8
:10083000D4F8508005464146404605F0B9F90146D6
:10084000284605F0ADF804F031FD03F0C1F9024689
:100850000B463046394603F021F811A3D3E90023B3
:1008600001F10047394604F075FD06460F46D4E90C
:100870003201C4E9346705F03DF800F10040A060A2
:100880003946304605F036F8E060D4E9360105F027
:1008900031F86060BDE8F0819A9999999999C93FBA
:1008A000F8C1631ADCA54C40024B01221A7001F01A
:1008B0007DBB00BFA107002008B50E2002F016FE88
:1008C00004F0E2FC0AA3D3E9002304F043FD002274
:1008D0000B4B04F03FFD08A3D3E9002304F03AFDDD
:1008E0000022084B04F036FD05F004F808BD00BFF7
:1008F000A4703D0AD7A30A40B1BFEC9E3C2CF03F48
:100900000000F83F0000303F38B50446104B00F1BE
:1009100008054360284600F0F8FA00210E2002F096
:10092000BBFD00210F2002F0B7FD0021062002F0E0
:10093000B3FD0021102002F0AFFD2046FFF7BCFF01
:1009400064212060284600F0E8FA204638BD00BF48
:10095000CDCCCC3DF8B5044645680F464FF07E50EF
:10096000294605F01BF8216805F022F939460646AC
:10097000284605F01DF90146304605F011F82060C3
:10098000F8BD38B500F108050446284600F0DAFA4B
:1009900058B12046FFF790FF01462046FFF7DAFFE7
:1009A0002846BDE8384000F0C3BA38BD024B0122EA
:1009B0001A7001F0FBBA00BFA207002010B503783F
:1009C0000446072B14D802F0F7FD702102F071FCE9
:1009D00002F0F2FD21780368012404FA01F19B681A
:1009E000C9B2984702F0E8FD02F06AFC204610BD4B
:1009F000002010BD10F8043B072B15D8DFE803F0EA
:100A00000406080A0C0E101209490EE009490CE010
:100A100009490AE0094908E0094906E0094904E0F2
:100A2000094902E0094900E0094901F0B2BD00BFEF
:100A300085620A088B620A089A620A0896620A08A6
:100A4000A0620A08A5620A08A9620A08AE620A083A
:100A5000B8620A0830B504460546ABB004F8141B6A
:100A600001A800F0DBFFA42201A9204605F074FADA
:100A700001A800F0E5FF2846FFF7A0FF204601F09F
:100A8000ADF920B902F0C4FA124901F0EBFD0021E2
:100A9000204601F034F920B902F0BAFA0E4901F00B
:100AA000E1FD0121204601F096F820B902F0B0FAEC
:100AB0000A4901F0D7FD0021204601F055F920B97F
:100AC00002F0A6FA064901F0CDFD2846FFF792FF95
:100AD0002BB030BDBD620A08FC620A083F630A08F9
:100AE00083630A08024B01221A7001F05FBA00BF4B
:100AF000A307002000224260704738B504460D4627
:100B000002F05AFD217802F0D0FB02F055FD036897
:100B100029469B68984702F04FFD02F0D1FB02F096
:100B20004BFD2178012202F0B8FB4FF47A7402F0F9
:100B300043FD03681B699847002804DC0CB9204674
:100B400038BD013CF3E7002CF9D002F035FD036815
:100B50005B699847C0B238BD38B504460D4602F00F
:100B60002BFD217802F0A1FB02F026FD0368294647
:100B70009B68984702F020FD02F0A2FB02F01CFDEA
:100B80002178022202F089FB4FF4FA6402F014FD8E
:100B900003681B699847012804DC0CB9204638BD5E
:100BA000013CF3E7002CF9D002F006FD03685B6915
:100BB0009847044602F000FD036824025B699847E9
:100BC00004F47F44C0B2204338BD70B506461446D5
:100BD0000D4602F0F1FC317802F067FB02F0ECFC0C
:100BE000036829469B68984702F0E6FC03682146A3
:100BF0009B68984702F0E0FCBDE8704002F060BBE3
:100C000038B5120103F00F03490102F010021A4334
:100C100001F060019DF810400A431E210546FFF7D0
:100C2000D4FF01231CB1072C28BF072400E01C4679
:100C3000601E03FA00F004F027FB02460B460CA1ED
:100C4000D1E9000104F0B0FC04F034FE1F2168601B
:100C50002846FFF752FF240100F08F0204F07004D1
:100C600022432846BDE838401F21FFF7AEBF00BF32
:100C70000000000080843E4170B5064614460D46D3
:100C800002F09AFC317802F010FB02F095FC036848
:100C900029469B68984702F08FFC0368C4F307213C
:100CA0009B68984702F088FC0368E1B29B6898470C
:100CB00002F082FCBDE8704002F002BBF8B50D46C0
:100CC0000E2116460446FFF747FF012280F47F40BD
:100CD00002FA05F580F0FF0028420BD010212046D3
:100CE000FFF73AFF16B145EA000201E020EA0502EB
:100CF00010211CE006212046FFF72EFF08210746A1
:100D00002046FFF729FFEA434EB102EA000606211A
:100D100045EA07022046FFF7AFFF324606E00543EB
:100D20003A4006212046FFF7A7FF2A460821204621
:100D3000BDE8F840FFF7A0BFF8B50D460021044616
:100D40001F46FFF709FF012303FA05F540EA0502F4
:100D500000212046FFF790FF06212046FFF7FCFE0A
:100D6000EE43062100EA06022046FFF785FF0E212A
:100D70002046FFF7F1FE0E2106EA00022046FFF7AB
:100D80007BFF1E212046FFF7B8FE00F0DF021E2188
:100D9000204642F04002FFF718FF1F212046FFF7D0
:100DA000ACFE1FB160F07702D2B201E000F0770232
:100DB00063681BB90E4B42F01002636020461F218E
:100DC000FFF703FF20212046FFF7C6FE202145EA5A
:100DD00000022046FFF750FF10212046FFF7BCFE1F
:100DE000102106EA00022046BDE8F840FFF744BFA4
:100DF00080841E0070B516460C460E210546FFF78E
:100E0000ABFE06F0FD03012B4FF0010303FA04F3E0
:100E100014BF43EA000220EA03020E212846FFF72E
:100E20002BFF022E06D121462846BDE87040012244
:100E3000FFF744BF032E07D121462846BDE8704086
:100E400000230122FFF778BF70BDFFF7D3BF10B5B5
:100E50001F210446FFF751FE430705D500F0FB02B2
:100E60001F212046FFF7B1FEE17820460122FFF75F
:100E7000C1FFE17800222046FFF720FF012001F0AA
:100E80005DFCE1782046BDE810400122FFF716BF67
:100E900010B5044619B1BDE81040FFF7D8BF1222C3
:100EA0007D21FFF792FE2046BDE8104034227D21CF
:100EB000FFF78BBE37B5054602F07EFB02F0DEF988
:100EC000EB78FF2B03D02846FFF7C1FF03E000219A
:100ED0002846FFF7DDFF13212846FFF73DFEB0F55A
:100EE0007F4F09D101240023284600941A4602218D
:100EF000FFF786FE204600E0002003B030BD017001
:100F0000C270FFF7D7BF01F051B800220260426003
:100F100002734FF47A728260704710B5037B044607
:100F20002BB9816001F092F801232060237310BD7A
:100F300010B5044601F08AF8237B20600BB9012329
:100F4000237310BD10B5037B04464BB101F07EF84E
:100F500023686060C01AA368984224BF00232373EB
:100F6000207B80F0010010BD01F020B808B501F031
:100F70001DF8024A024B1A6008BD00BF0DC71A3F98
:100F8000A40700200378032B0BD8DFE803F002044A
:100F90000608044B04E0044B02E0044B00E0044B61
:100FA000836470470000FA3B00007A3C0000FA3C82
:100FB00000007A3D4378032B0FD8DFE803F00205E9
:100FC000080B4FF0625307E04FF0645304E04FF01A
:100FD000665301E04FF068534364704738B50446E8
:100FE00001F02CF805466063E06A281A04F088FDD9
:100FF000064904F091FEE56201466062A06A04F0D1
:10100000CFFC236AA0620133236238BD00247449F7
:1010100070B50E4615461C4602F0CEFA314602F077
:1010200044F902F0C9FA036829469B68984702F020
:10103000C3FA036821469A68904702F0BDFABDE8FA
:10104000704002F03DB938B50C46154602F0B4FACE
:10105000214602F02AF902F0AFFA036829469B689C
:10106000984702F0A9FA002102F026F902F0A4FA4A
:101070000122214602F011F902F09EFA03685B6931
:101080009847C0B238BD10B5044600236B226821D2
:10109000FFF7BEFF642001F051FB01236B226821A2
:1010A0002046FFF7B5FFC82001F048FB2046032388
:1010B0001A226821FFF7ACFF042320461922682179
:1010C000FFF7A6FF1B2268212046FFF7BCFF23780D
:1010D00020F01A0040EAC30303F0FD0320461B2260
:1010E0006821FFF795FF1C2268212046FFF7ABFF20
:1010F000637820F0180040EAC303DBB220461C22CC
:101100006821FFF785FF1D2268212046FFF79BFF1E
:1011100000F0F00343F0030320461D226821FFF78F
:1011200077FF2046222337226821FFF771FF2046F0
:10113000012338226821FFF76BFFBDE810406420CF
:1011400001F0FCBAF8B50C4617461E46069D02F0A3
:1011500033FA214602F0A9F802F02EFA0368394664
:101160009B68984702F028FA002102F0A5F802F0E7
:1011700023FA2146324602F090F8002402F01CFACD
:101180000368661C1B69984740B102F015FA0368B2
:10119000E4B25B69984728553446EFE7F8BD1FB5C0
:1011A0000C4602AB00933B2206236821FFF7CAFFDF
:1011B0009DF808209DF8093043EA022323809DF81A
:1011C0000A209DF80B3043EA022363809DF80C202F
:1011D0009DF80D3043EA0223A38004B010BD1FB573
:1011E0000C4602AB0093432206236821FFF7AAFFB7
:1011F0009DF808209DF8093043EA022323809DF8DA
:101200000A209DF80B3043EA022363809DF80C20EE
:101210009DF80D3043EA0223A38004B010BD000006
:101220002DE9F04F04468FB0802304910592682188
:101230006B22FFF7EDFE642001F080FA01236B22A0
:1012400068212046FFF7E4FE00236C226821204637
:10125000FFF7DEFEC82001F071FA00233822682172
:101260002046FFF7D5FE0023232268212046FFF702
:10127000CFFE00236B2268212046FFF7C9FE002322
:10128000242268212046FFF7C3FE00236A2268213A
:101290002046FFF7BDFE0C236A2268212046FFF797
:1012A000B7FE0F2001F04AFA01231A2268212046D6
:1012B000FFF7AEFE0023192268212046FFF7A8FEA3
:1012C00000231B2268212046FFF7A2FE00231C22D8
:1012D00068212046FFF79CFE40236A2268212046B1
:1012E000FFF796FE7823232268212046FFF790FE21
:1012F000282001F023FA0DF1200B0023232268217E
:101300002046FFF785FE0223CDF800B07222682147
:101310002046FFF717FF9DF820609DF82130002739
:1013200043EA06230C26B3FBF6F63D46B846B9461B
:10133000BA4602970397BBB29E423DD90C23742252
:10134000CDF800B068212046FFF7FCFE9DF8202074
:101350009DF82130013743EA02231BB29DF8222079
:1013600099449DF8233043EA02231BB29DF82420C0
:1013700098449DF8253043EA02231BB29DF82620AD
:101380001D449DF8273043EA02231BB29DF8282014
:101390009A449DF8293043EA0223039A1BB21A4467
:1013A00003929DF82B309DF82A2043EA0223029AEB
:1013B0001BB21A440292BEE79AFBF6FA039B042280
:1013C00093FBF6F7029B9AFBF2F195FBF6F599FB7E
:1013D000F6F998FBF6F893FBF6F64942C1F30723BA
:1013E0008DF8211097FBF2F196FBF2F2494252423E
:1013F00008128DF823101112002D8DF822008DF89F
:1014000024108DF825204FF068014FF0130220467C
:10141000CCBFA5F5804505F580458DF82030FFF758
:10142000F7FD9DF82130142268212046FFF7F0FDDA
:101430009DF82230152268212046FFF7E9FD9DF82E
:101440002330162268212046FFF7E2FD9DF8243064
:10145000172268212046FFF7DBFD18229DF8253072
:1014600068212046FFF7D4FD504604F04DFB5B4950
:1014700004F052FC049B1860384604F045FB5749C1
:1014800004F04AFC049B5860304604F03DFB53498D
:1014900004F042FC049B77229860682102232046D6
:1014A000CDF800B0FFF74EFEBDF8207002237FBAE2
:1014B0007A2268212046BFB2CDF800B00B97FFF723
:1014C00041FEBDF82060022376BA7D226821B6B2C3
:1014D000CDF800B020460C96FFF734FEBDF8202072
:1014E000002352BA92B20D928DF81C308DF81D3047
:1014F0008DF81E3001210BA850F82300C00744BF0F
:1015000007A819540133032BF5D1082399FBF3F1F4
:101510007F1A98FBF3F195FBF3F3761A9DF81C10F4
:10152000D21AC7F307230F4331128DF822109DF80A
:101530001D1020460E4311128DF824109DF81E1028
:101540008DF820300A438DF82520682177228DF808
:1015500021708DF82360FFF75BFD9DF82130204658
:1015600078226821FFF754FD9DF8223020467A2228
:101570006821FFF74DFD9DF8233020467B2268212E
:10158000FFF746FD9DF8243020467D226821FFF7B5
:101590003FFD7E229DF8253068212046FFF738FD6B
:1015A000484604F0B1FA4FF0625104F001FB059B8C
:1015B0001860404604F0A8FA4FF0625104F0F8FABF
:1015C000059B5860284604F09FFA4FF0625104F0E2
:1015D000EFFA059B98600FB0BDE8F08F0000034361
:1015E0002DE9F04F044695B000230291192268219D
:1015F00004AE0493B380FFF70BFD02231A22682187
:101600002046FFF705FD01231B2268212046FFF736
:10161000FFFC02231D2268212046FFF7F9FC01236D
:101620001C2268212046FFF7F3FCC82506233B2235
:10163000682120460096FFF785FD9DF811309DF842
:101640001020009643EA0222BDF82030682113449E
:10165000ADF820309DF812209DF81330204643EA63
:101660000222BDF822301344ADF822309DF8142038
:101670009DF8153043EA0222BDF824301344ADF83A
:10168000243043220623FFF75DFD9DF811309DF8BD
:101690001020013D43EA0222BDF818301344ADF892
:1016A00018309DF812209DF8133043EA0222BDF84D
:1016B0001A301344ADF81A309DF814209DF81530F7
:1016C00043EA0222BDF81C301344ADF81C30ADD102
:1016D0002B460DF1200AC8213AF9132006A892FBE7
:1016E000F1F22AF8132006AA32F9132092FBF1F244
:1016F00020F813200133032BEED1E0231C226821B4
:101700002046FFF785FCE0231B2268212046FFF7D7
:101710007FFC192001F012F8C82506233B2268211E
:1017200020460096FFF70EFD9DF811309DF8102021
:10173000009643EA0222BDF8283068211344ADF830
:1017400028309DF812209DF81330204643EA0222EB
:10175000BDF82A301344ADF82A309DF814209DF8C6
:10176000153043EA0222BDF82C301344ADF82C307A
:1017700043220623FFF7E6FC9DF811309DF8102068
:10178000013D43EA0222BDF830301344ADF8303059
:101790009DF812209DF8133043EA0222BDF8323042
:1017A0001344ADF832309DF814209DF8153043EA0B
:1017B0000222BDF834301344ADF83430ADD12B469D
:1017C000C8210AAD0DF1300B35F9132092FBF1F26F
:1017D00025F813203BF9132092FBF1F22BF813208C
:1017E0000133032BF0D1204600231C226821FFF790
:1017F0000FFC00231B2268212046FFF709FC19205B
:1018000000F09CFF0D2268212046FFF71CFC0E22F1
:10181000039068212046FFF716FC0F220746682137
:101820002046FFF710FC0022804668212046FFF783
:101830000AFC0122814668212046FFF704FC0222AF
:10184000064668212046FFF7FEFB039B0446184628
:1018500004F056F903F02AFD00226D4B03F0C6FB9D
:1018600002460B4666A1D1E9000102F019F866A311
:10187000D3E9002303F06EFD04F03CF80E903846E7
:1018800004F03EF903F012FD0022614B03F0AEFBC1
:1018900002460B465AA1D1E9000102F001F85AA311
:1018A000D3E9002303F056FD04F024F80F904046DE
:1018B00004F026F903F0FAFC0022554B03F096FBE6
:1018C00002460B464EA1D1E9000101F0E9FF4EA30B
:1018D000D3E9002303F03EFD04F00CF810904846D5
:1018E00004F00EF903F0E2FC0022494B03F07EFB0A
:1018F00002460B4642A1D1E9000101F0D1FF42A30B
:10190000D3E9002303F026FD03F0F4FF11903046E5
:1019100004F0F6F803F0CAFC00223D4B03F066FB2E
:1019200002460B4636A1D1E9000101F0B9FF36A30A
:10193000D3E9002303F00EFD03F0DCFF12902046F4
:1019400004F0DEF803F0B2FC0022314B03F04EFB52
:1019500002460B462AA1D1E9000101F0A1FF2AA30A
:10196000D3E9002303F0F6FC03F0C4FF029B1390BD
:1019700010AF03F1080600243AF9143035F91400C9
:10198000C01A04F0C1F803F091FC0022214B03F0CF
:10199000E1FC0EAB804653F82400894603F086FC38
:1019A00002460B464046494603F0FEFD03F0A2FF07
:1019B000029B43F8240006AB33F914303BF91400C2
:1019C0000134C01A04F0A0F803F070FC0022114B9F
:1019D00003F0C0FC804657F8040F894603F066FC0C
:1019E00002460B464046494603F0DEFD03F082FF07
:1019F000032C46F8040FBFD115B0BDE8F08F00BF2F
:101A0000295C8FC2F528F03F000000000078A44058
:101A10000000F03F0000594000F0C8BA0022C0F8B2
:101A20008420C0F88820C0F88C20C0F89020C0F82E
:101A30009420C0F89820C0F89C20C0F8A0207047DF
:101A4000704710B50C4601F0B7FD392101F031FCAB
:101A500001F0B2FD036821469B68984701F0ACFD98
:101A600001F02EFCB0FA80F0400910BD38B51446E4
:101A70000D4601F0A1FD392101F01BFC01F09CFD98
:101A8000036829469B68984701F096FD0368214644
:101A90009B68984701F090FD01F012FCB0FA80F0CD
:101AA000400938BD0A46A021FFF7E0BF0A46A12140
:101AB000FFF7DCBF38B5CAB20C4684210546FFF7F4
:101AC000D5FF30B1220A2846BDE838408521FFF70E
:101AD000CDBF38BD38B5CAB20C4686210546FFF7E2
:101AE000C5FF30B1220A2846BDE838408721FFF7FC
:101AF000BDBF38BD0A468921FFF7B8BF0A468B2112
:101B0000FFF7B4BF38B51546FFF79BFF044690B109
:101B100001F052FD0122392101F0C2FB01F04CFD20
:101B200003681B69984730B101F046FD03685B69A3
:101B300098472870F2E7204638BD07B580210DF19F
:101B40000702FFF7DFFF10B19DF8070000E0FF205C
:101B500003B05DF804FB70B505460E461446FFF76A
:101B6000ECFFFF2819D0062E04F0010208D801234B
:101B7000B3400AB1184301E020EA0300C0B205E017
:101B8000072E03D1002A14BF7F20002002468021A7
:101B90002846BDE87040FFF769BF002070BD0122F4
:101BA0000021FFF7D8BF37B50D460DF107028F2191
:101BB0000446FFF7A7FF60B19DF807208F2102F0D0
:101BC0003F0242EA8512D2B220468DF80720FFF785
:101BD0004DFF03B030BD37B50C460DF107028F2124
:101BE0000546FFF78FFF68B19DF80720A40022F09B
:101BF0000C0204F00C0422438F2128468DF80720A4
:101C0000FFF734FF03B030BD37B50C460DF10702C6
:101C10008F210546FFF776FF60B19DF8072004F09D
:101C2000030422F0030222438F2128468DF8072067
:101C3000FFF71CFF03B030BD37B50C460DF10702AE
:101C4000A3210546FFF75EFF68B19DF807206401F8
:101C500022F0600204F060042243A32128468DF89C
:101C60000720FFF703FF03B030BD37B50C460DF179
:101C70000702A3210546FFF745FF68B19DF807203D
:101C8000E40022F0180204F018042243A32128469D
:101C90008DF80720FFF7EAFE03B030BD37B50C46DC
:101CA0000DF10702A3210546FFF72CFF60B19DF857
:101CB000072004F0070422F007022243A32128464C
:101CC0008DF80720FFF7D2FE03B030BD37B50C46C4
:101CD0000DF1070280210546FFF714FF68B19DF85A
:101CE0000720240122F0100204F010042243802176
:101CF00028468DF80720FFF7B9FE03B030BD38B590
:101D00000D4601210446FFF77FFF90B17DB101210F
:101D10002046FFF7DBFF60B12046FFF740FF40B1F0
:101D200001222046BDE838401146FFF714BF29467E
:101D3000EEE7002038BD37B50C460DF107028021D3
:101D40000546FFF7DFFE68B19DF80720640122F029
:101D5000200204F020042243802128468DF8072029
:101D6000FFF784FE03B030BD38B50D4602210446AE
:101D7000FFF731FFB8B100212046FFF714FF90B103
:101D80007DB101212046FFF7D6FF60B12046FFF765
:101D900006FF40B12046BDE8384001220221FFF78E
:101DA000DABE2946EEE7002038BD37B50C460DF106
:101DB0000702AB210546FFF7A5FE68B19DF8072095
:101DC000640022F0020204F002042243AB21284600
:101DD0008DF80720FFF74AFE03B030BD13B5044667
:101DE00001F0EAFB01F04AFA0DF1070292212046C8
:101DF000FFF788FE08B90020D4E09DF80730AB2B30
:101E000001D09C2BF7D1002207212046FFF7A3FE2B
:101E10000028F0D0DB2281212046FFF727FE002892
:101E2000E9D0F62283212046FFF720FE0028E2D0E9
:101E300087228E212046FFF719FE0028DBD00022E2
:101E40009D212046FFF712FE0028D4D000229E21BB
:101E50002046FFF70BFE0028CDD060228D212046C2
:101E6000FFF704FE0028C6D000212046FFF79BFEA6
:101E70000028C0D002212046FFF7ADFE0028BAD0CE
:101E800001212046FFF7C0FE0028B4D000212046E3
:101E9000FFF730FE0028AED032212046FFF72EFE9D
:101EA0000028A8D04FF6FF712046FFF703FE002858
:101EB000A1D000212046FFF70DFE00289BD0112263
:101EC0008C212046FFF7D2FD002894D001229021DA
:101ED0002046FFF7CBFD00288DD000229F21204611
:101EE000FFF7C4FD002886D028212046FFF7DAFD41
:101EF000002880D01E212046FFF7D8FD00283FF49F
:101F00007AAF4022A2212046FFF7B0FD00283FF41F
:101F100072AF02212046FFF78FFE00283FF46BAF1F
:101F200000212046FFF7A1FE00283FF464AF012105
:101F30002046FFF7B3FE00283FF45DAF0022A42146
:101F40002046FFF793FD00283FF455AF0022A5215E
:101F50002046FFF78BFD00283FF44DAF0022A7215C
:101F60002046FFF783FD00283FF445AF0022A9215A
:101F70002046FFF77BFD00283FF43DAFC922A62194
:101F80002046FFF773FD00283FF435AF0022AA2159
:101F90002046FFF76BFD00283FF42DAF00212046BF
:101FA000FFF703FF02B010BD00F000B808B5024B08
:101FB0001B681B68019308BDB001060808B5024BF9
:101FC0001B685B68019308BDB001060808B5024BA9
:101FD0001B689B68019308BDB001060808B5024B59
:101FE0001B68DB68019308BDB001060808B5024B09
:101FF0001B681B69019308BDB001060808B5024BB8
:102000001B681B6B019308BDB001060808B5024BA5
:102010001B68DB69019308BDB401060808B5024BD3
:102020001B681B6A019308BDB401060808B5024B82
:102030001B685B68019308BD9C01060808B5024B4C
:102040001B681B69019308BD9C01060808B5024B7B
:102050001B685B69019308BD9C01060808B5024B2B
:102060001B689B6A019308BD9C01060808B5024BDA
:102070001B685B6C019308BD9C01060808B5024B08
:102080001B689B6E019308BDB801060808B5024B9A
:102090001B681B6B019308BDD001060808B5024BF5
:1020A0001B689B69019308BDC401060808B5024B73
:1020B0001B685B6A019308BDC401060808B5024BA2
:1020C0001B689B6A019308BDC401060808B5024B52
:1020D0001B68DB6A019308BDC401060808B5024B02
:1020E0001B681B6B019308BDC401060808B5024BB1
:1020F0001B685B6B019308BDC401060808B5024B61
:102100001B689B6B019308BDC401060808B5024B10
:102110001B681B6C019308BDC401060808B5024B7F
:102120001B68DB6C019308BDAC01060808B5024BC7
:102130001B685B6D019308BDAC01060808B5024B36
:102140001B689B6D019308BDAC01060808B5024BE6
:102150001B68DB6D019308BDAC01060808B5024B96
:102160001B681B6E019308BDAC01060808B5024B45
:102170001B685B6E019308BDAC01060808B5024BF5
:102180001B689B6E019308BDAC01060808B5024BA5
:102190001B68DB6E019308BDAC01060808B5024B55
:1021A0001B681B6F019308BDAC01060808B5024B04
:1021B0001B685B6F019308BDAC01060808B5034BB3
:1021C0001B68D3F88030019308BD0000AC010608FD
:1021D00008B5024B1B681B68019308BDD8010608AF
:1021E00008B5024B1B685B68019308BDD80106085F
:1021F00008B5024B1B681B69019308BDD80106088E
:1022000008B5024B1B685B69019308BDD80106083D
:1022100008B5024B1B689B69019308BDD8010608ED
:1022200008B5024B1B68DB69019308BDD80106089D
:1022300008B5024B1B681B6A019308BDD80106084C
:1022400008B5024B1B689B6C019308BDC0010608D2
:1022500008B5024B1B685B68019308BDA401060822
:1022600008B5024B1B685B69019308BDA401060811
:1022700008B5024B1B68DB6C019308BDA40106087E
:1022800008B5024B1B685B6D019308BDA4010608ED
:1022900008B5034B1B68D3F89030019308BD0000CC
:1022A000A401060808B5034B1B68D3F89C300193C2
:1022B00008BD0000A401060808B5024B1B685B6856
:1022C000019308BDC801060808B5024B1B689B684E
:1022D000019308BDC801060808B5024B1B68DB68FE
:1022E000019308BDC801060808B5024B1B681B69AD
:1022F000019308BDC801060808B5024B1B685B695D
:10230000019308BDC801060808B5024B1B689B690C
:10231000019308BDC801060808B5024B1B68DB69BC
:10232000019308BDC801060808B5024B1B681B6A6B
:10233000019308BDC801060808B5024B1B681B6B5A
:10234000019308BDC801060808B5024B1B685B6B0A
:10235000019308BDC801060808B5024B1B685B69FC
:10236000019308BDCC01060808B5024B1B681B6A27
:10237000019308BDCC01060808B5024B1B685B6AD7
:10238000019308BDCC01060808B5024B1B68DB6B46
:10239000019308BDCC01060808B5024B1B681B68F9
:1023A000019308BDA001060808B5024B1B685B68D5
:1023B000019308BDA001060808B5024B1B689B6885
:1023C000019308BDA001060808B5024B1B68DB6A33
:1023D000019308BDA001060808B5024B1B681B6BE2
:1023E000019308BDA001060808B5024B1B68DB6B12
:1023F000019308BDA0010608704710B504461021DE
:1024000001F0FFF8204610BD70B504460E46074B9C
:102410000025036040F80C5FFFF738FE3046267158
:10242000FFF7F4FDA560204670BD00BFC8630A0831
:102430000079FFF7F3BD014600228C20FFF71EBE96
:102440000020FFF7F8BF00004FF6FF72034B00209B
:10245000187058809A80FFF7FBBE00BFA8070020C5
:1024600010B504460068FFF79FFF204610BD10B569
:102470000446006808B1FFF797FF00232360A360BC
:10248000636010BD38B504460D4600680131FFF7A2
:1024900093FF10B184E82100012038BD10B5036816
:1024A000044613B143688B4207D22046FFF7EAFF88
:1024B00020B1A3680BB922681370012010BD70B55C
:1024C0000E46114604461546FFF7E8FF18B92046A8
:1024D000FFF7CDFF09E02A463146A560206803F0EA
:1024E0003BFD2268A3680021D154204670BD38B559
:1024F0000023044603604360836003730D4639B1D3
:10250000084603F092FD294602462046FFF7D7FF12
:10251000204638BD38B5054600680C4660B16A688B
:102520008B689A4206D3096803F05CFDA368AB6030
:1025300000230AE0FFF738FF23682B6063686B60B5
:10254000A368AB60002323606360A36038BD88424A
:1025500010B50B46044607D0096819B19A68FFF711
:10256000AEFF01E0FFF783FF204610BD10B5044623
:1025700000230360436083600373FFF7E8FF204696
:1025800010BD884210B5044601D0FFF7C3FF2046B6
:1025900010BD38B505460C4641B1084603F045FD6F
:1025A000214602462846FFF78AFF01E0FFF75FFF5A
:1025B000284638BD70B504460E4609B9002070BDE6
:1025C0006AB18368D5182946FFF768FF0028F5D05F
:1025D0002068A3683146184403F004FDA56001207B
:1025E00070BD10B58A6809680446FFF7E3FF10B9AB
:1025F0002046FFF73CFF204610BDF8B506460D46C5
:102600008F180024BD420CD0336815F8011B9B685D
:1026100030469847002801DB0444F3E7002C08BF4C
:1026200004462046F8BD70B505460C46084649B13B
:1026300003F0FBFC2B68024621462846BDE87040AB
:10264000DB68184770BD03689B68184738B50D21D3
:102650000546FFF7F8FF0A2104462846FFF7F3FF77
:10266000204438BD38B50546FFF7DDFF044628464F
:10267000FFF7ECFF204438BD012A98BF0A2230B58D
:102680000B468BB000218DF824100DF12304B3FB11
:10269000F2F505FB1233DBB2092B94BF303337332D
:1026A000DBB2214604F801392B46002DEFD1FFF7AC
:1026B000BAFF0BB030BD10B422B90368C9B29B6831
:1026C00010BC1847D2B210BCFFF7D6BFFFF7F3BF5C
:1026D00000231A4619464068FFF70EBE38B5046855
:1026E00005467CB16368013B63605BB923682046A3
:1026F0009B689847A368013BA3601BB923682046E9
:10270000DB689847284638BD0B68036013B15A68E8
:1027100001325A6070470000014A024B1A6070474C
:1027200046640A08B0070020024B1A68024B1A6080
:10273000704700BF00000020B40700200021FFF711
:102740008FBD10B50446FDF7A7FE204610BD13B59A
:102750000B46044603C88DE8030093E8030084E8B1
:1027600003009DE8030083E8030002B010BD0000F1
:10277000034800238360034A034900F03DBF00BFC4
:10278000B80700207000002043270A0808B5144B42
:1027900033B100F03DFC03681B699847002816DC44
:1027A000104B33B100F0F2FC03681B699847002816
:1027B00010DC0D4B0BB1AFF300800C4B7BB100F084
:1027C00063FC03681B699847002806DC08BDAFF36B
:1027D0000080E5E7AFF30080EBE7AFF3008008BDD2
:1027E00000000000000000000000000000000000E9
:1027F00008B5FFF7CBFFFFF729FC014B186008BDB8
:102800005C0C00200248034A0349121A03F0A4BBDF
:10281000004002400440024020670A0807B5002338
:1028200000931A466FF07701FFF73CFD03B05DF8A7
:1028300004FB000007B543880A2B08D0502B09D1B0
:10284000094B1B683BB103B05DF804EB1847FFF779
:10285000E5FF06E0002300931A466FF07701FFF7CB
:1028600021FD03B05DF804FBC807002038B5104C0B
:10287000104D2368AB42104B0CBF012200221A708E
:1028800002D0FFF7BFFF2560FFF7D0FB044603F03F
:1028900077FB0A4B13B12046AFF3008000210748B5
:1028A000FFF772FDBDE8384000210548FFF7F0BC96
:1028B000004002401E1C279ACC07002000000000A8
:1028C00035280A0870470020704710B504461021CB
:1028D00000F097FE204610BD08B508B1FFF7F5FFE0
:1028E00008BD002202604FF69C72828010B5B1F9DB
:1028F000044084808A8002680C6804600A6010BD0D
:1029000010B504460068FFF74FFD204610BD38B5EE
:10291000C468F4B12378022B03D104F10C00FFF753
:10292000EFFF656835B12846FDF7B6FD1021284652
:1029300000F067FEA56835B12846FDF7ADFD102112
:10294000284600F05EFE2046BDE83840142100F025
:1029500058BE38BD07B58DE8060082680AB900F098
:1029600052FEC36801AA6946984703B05DF804FBAC
:1029700013B5044691E8050000234B600B6020600E
:10298000626001A801930093FFF7A8FE204602B001
:1029900010BDF7B50C4606460F4654F8043B02AD91
:1029A00045F8083D214601A8FFF7AEFE294630460E
:1029B000FFF7DEFF01A8FFF791FE2046FFF78EFE2E
:1029C0003846082100F01DFE304603B0F0BD00007F
:1029D00038B500230446036010200D46FDF75FFB69
:1029E00028B1012343608360024BC560036020600F
:1029F000204638BDD8640A08826810B50AB900F0CC
:102A000002FEC368BDE81040184708B5006800F131
:102A10001001FFF7F1FF08BD826810B50AB900F098
:102A2000F2FDC368BDE81040184708B5006800F122
:102A30001001FFF7F1FF08BD38B5002383608B68F4
:102A400004460D462BB102229847EB68E360AB6861
:102A5000A360204638BD0000F0B589B00468684620
:102A6000FFF73FFF4FF0020200238DF80830D4E853
:102A70004F3F002B03D1C4E8412F0029F7D102D0EA
:102A80008DF8083063E014F10C0503D06946284640
:102A9000FFF727FFBFF35F8F01236370BFF35F8FE3
:102AA00004F10803002053E8006F43E80002002A05
:102AB000F9D1BFF35F8F002E49D0FFF7D9FB20B1CA
:102AC00029463046FFF798FF3AE0314602A8FFF763
:102AD000B3FFE068B4F9105008B103F08BFA069028
:102AE0001020ADF81C50FDF7DAFA0546E8B10027D2
:102AF00087601820FDF7D3FA044688B10146876045
:102B000002A8FFF724FE049BA268A360059B049221
:102B1000E26806A9E36004F110000592FFF7E1FE08
:102B20000D4B2C60EB600D4BAB6006A8FFF7E8FE89
:102B300002A8FDF7B1FC002229460948FFF7A0FBD7
:102B40003046FDF7A9FC1021304600F05AFD6846DA
:102B5000FFF7D6FE09B0F0BD0B2A0A08812C0A083F
:102B6000D9310A082DE9F04F8BB006460F46904642
:102B700099469DF850A0FFF7EFFB07AD834630BBA9
:102B80004FF62E73059005A92846ADF81830FFF7CB
:102B9000A8FE1420FDF783FA044658B102230370FF
:102BA00001234370C0F804B0C0F808B029460C30C7
:102BB000FFF797FE3046214640F8044BFFF708FF29
:102BC0002846FFF79DFE05A8FFF79AFE52E0002475
:102BD0000C2314206C60AC600793FDF760FA01468B
:102BE00018B1047044704460846004A80391FFF736
:102BF000EFFE224B08200893FDF751FA044628B156
:102C0000039B04A940F8043BFFF77EFD00955FFAA3
:102C10008AF34A46414638460994FFF7A5FB20B996
:102C2000039B5B7803F0FF0283B1039B04A906A812
:102C30000593FFF769FD05A93046FFF799FE06A841
:102C4000FFF74CFD04A8FFF749FD13E04FF69C7316
:102C500005A903A80592ADF81830FFF7FDFE05A8F9
:102C6000FFF74EFE05A80999FFF793FE06A8FFF7A8
:102C700035FDDAE730460BB0BDE8F08FF12D0A08DC
:102C8000022AF8B5044606D0032A17D0012A22D119
:102C90000B6803601FE018200E68FDF700FA054678
:102CA00050B13146FFF7C8FE3069B6F9147008B16B
:102CB00003F0A0F92861AF8225600CE0046854B1EC
:102CC00004F11000FFF71CFE2046FDF7E5FB18217C
:102CD000204600F096FC0020F8BD38B50023836044
:102CE0008B6804460D462BB102229847EB68E360DF
:102CF000AB68A360204638BD022A70B5044606D0F2
:102D0000032A11D0012A18D10B68036015E01420A2
:102D10000E68FDF7C4F9054620B13146FFF7DDFF27
:102D2000337C2B74256008E0046834B12046FDF73D
:102D3000B3FB1421204600F064FC002070BD0000AD
:102D4000F0B50C46BFF35F8F87B0002350E8006FEB
:102D500040E80032002AF9D1BFF35F8F002E3FD048
:102D60001846FFF785FA074620B121463046FFF79F
:102D700053FE2EE0314601A8FFF7AFFF2378102065
:102D80008DF81430FDF78BF90546D0B1876014201B
:102D9000FDF785F9044678B18760014601A8FFF781
:102DA000D6FC039BA268A360049B0392E268E360E5
:102DB0009DF81430049223740A4B2C60EB600A4B8C
:102DC000AB6001A8FDF768FB002229460748FFF722
:102DD00057FA3046FDF760FB1021304600F011FC39
:102DE00007B0F0BD2B2A0A08F92C0A08D9310A08C5
:102DF00030B5044685B00D4668461146FFF7C9FD5B
:102E00007CB124B228460DB103F0F4F8029002A977
:102E10006846ADF80C40FFF71FFE02A8FFF770FDF3
:102E20001DE04FF0010200988DF80840D0E84F3FB8
:102E3000A34203D1C0E8412F0029F7D102D08DF879
:102E400008300CE010F10C014FF0010318BF0373C0
:102E5000BFF35F8F043000F8033CFFF771FF01A858
:102E6000FFF73CFC05B030BD704710B50446182193
:102E700000F0C7FB204610BDF8B50F4600F108066C
:102E8000051D002416F8011D0A223846FFF71EFC16
:102E9000AE42044407D0002CF4D02E213846FFF770
:102EA000D2FB0444EEE72046F8BD000010B504460E
:102EB000044B112240F8043B002103F058F820464F
:102EC00010BD00BFF4640A080346074A10B543F872
:102ED000042B01F1100251F8044B914243F8044BCA
:102EE000F9D10A781A7010BDF4640A08024A4160E8
:102EF0000260042202757047F4640A0810B59DF858
:102F0000084044EA032343EA024242EA01610423FF
:102F10004160037510BD000037B5044D05609DF894
:102F200018500095FFF7EAFF03B030BDF4640A08BB
:102F300041747047704708B50021007CFFF768F9BD
:102F400030EA200028BF4FF0FF3008BD08B501214E
:102F5000007CFFF75DF930EA200028BF4FF0FF301A
:102F600008BD08B5007CFFF74BF920EAE07008BD0A
:102F700008B5007CFFF73CF920EAE07008BD007C52
:102F8000FFF756B910B50446142100F03AFB20466D
:102F900010BD38B50446007C0D46FFF731F9002816
:102FA00001DC607C28B12946207CFFF739F920EA52
:102FB000E07038BD10B50446002363604FF47A73A7
:102FC000A360054B084623600123217463741146F6
:102FD000FFF7FEF8204610BD08650A080022007CB5
:102FE000FFF7FEB810B504461422002102F0BFFF1F
:102FF000054B20466360054BE36040F201132381DB
:103000008123238210BD00BF55080020D407002073
:1030100030B50E4D87B001A8FFF7E4FF296811F025
:10302000010410D12846FDF73EF860B101AA2146FF
:103030000748FFF7BFFF2846FDF73AF8054A06495B
:10304000034800F0D9FA024807B030BDD00700208D
:103050005809002070000020352F0A0810B50446DA
:103060001422002102F083FF054B20466360054BCC
:10307000E36040F2011323818123238210BD00BF4E
:10308000080A00207009002010B50E4C86B001A877
:10309000FFF7E4FF2368DB0710D42046FDF703F8B1
:1030A00060B101AA01210848FFF784FF2046FCF720
:1030B000FFFF064A0649044800F09EFA024806B09F
:1030C00010BD00BF6C090020F40900207000002032
:1030D000352F0A0870474174704708B5007CFFF728
:1030E00015F820EAE07008BD08B5007CFEF7E6FFA1
:1030F00020EAE07008BD08B5007CFEF7EFFF30EA7B
:10310000200028BF4FF0FF3008BD08B5007CFEF757
:10311000DDFF30EA200028BF4FF0FF3008BD007C03
:10312000FEF7E4BF10B50446142100F06AFA204609
:1031300010BD70B5457C04460E4625B9007CFEF7EF
:10314000E5FF002805DD3146207CBDE87040FEF734
:10315000ADBF284670BD000010B5044608461146B4
:10316000002262604FF47A72A260054A20742260E5
:10317000012262741A46FEF791FF204610BD00BF7F
:1031800038650A08007CFEF7B9BF000038B50C4D61
:10319000296811F0010411D12846FCF784FF68B1B9
:1031A000084A2146084B0948FFF7D6FF2846FCF796
:1031B0007FFF074A0749054800F01EFA034838BD5B
:1031C000A40B0020A80B0020200B00200C0B0020DB
:1031D00070000020D5300A0810B5836804460BB98A
:1031E00000F011FAC3689847A3681BB10322214677
:1031F000204698472046BDE81040102100F001BA53
:103200007047F8B5064615460C468F18BC4206D0E6
:10321000336814F8011B9B6830469847F6E7284648
:10322000F8BD0022007CFEF799BF0021007CFEF76C
:103230009DBF0021007CFEF7A1BF0021007CFEF7AE
:10324000A5BF0021007CFEF7A9BF10B504461421DC
:1032500000F0D7F9204610BD10B5044608464FF4DB
:103260007A73A360044B0021207461602360FEF731
:10327000A5FF204610BD00BF68650A0800231A4656
:103280001946007CFEF74ABF13B50024007C009469
:10329000FEF74CFFC0B202B010BD0123FFF7F4BF30
:1032A0000123D2B2C9B2FFF7EFBF0022007CFEF7C4
:1032B00045BFC9B2FFF7F9BF0022007CFEF746BF49
:1032C0000121FFF7F9BF0021007CFEF76FBF00224C
:1032D00011464068FFF708B8F0B5164689B01122CC
:1032E0000F460446002103A802F041FE304602F0DA
:1032F0009CFE0025009581B27B6803AA3046FEF74C
:103300009FFF20B129462046FFF7F0FD03E003A907
:103310002046FFF7D9FD204609B0F0BD0022114636
:103320004068FFF701B8002211464068FFF70CB86B
:1033300000224068FFF700B8002281F001014068D8
:10334000FEF7EABF00231A4619464068FEF7DCBFC5
:10335000002211464068FEF7B7BF002202214068F4
:10336000FEF7BABF00231A464068FEF7A5BF00006B
:10337000024B04225A60024A1A6070472C0C00204B
:1033800090650A0800231A464068FEF795BF0022A0
:1033900002214068FEF7A0BF002211464068FEF7F8
:1033A00093BF002211464068FEF79EBF00231A46D5
:1033B00019464068FEF7A0BF00231A461946406828
:1033C000FEF7A2BF002281F001014068FEF7A4BF12
:1033D00000224068FEF7B0BF002211464068FEF7A9
:1033E000B3BF002211464068FEF79EBF70B5164677
:1033F0008EB0044608A8FFF759FD1122002103A84A
:1034000002F0B5FD304602F010FE00250A4B009593
:1034100081B25B6803AA3046FEF712FF20B129464D
:103420002046FFF763FD03E003A92046FFF74CFDAC
:1034300020460EB070BD00BF2C0C0020024B034A8A
:103440001A6000225A607047340C0020C4650A08D4
:1034500010B504460F48FEF7EBFF28B1A4F10D03A9
:10346000022B01D8002010BD00F0A6F8FFF72BFFBB
:1034700008B1012CF6D9FFF789FEFFF783FE18B1DA
:10348000A4F11203012BEDD9172C8CBF00200120D1
:1034900010BD00BF3C0C0020172838B504460D466F
:1034A0000AD8FF2908D0FFF7D3FF28B129462046C4
:1034B000BDE83840FEF78ABD38BD38B504460D4634
:1034C000FEF78CFDFF2810D0062804D84D2323FAE0
:1034D00000F0C30709D42046FFF7BAFF28B12946F8
:1034E0002046BDE83840FEF781BD38BD10B5044622
:1034F00009289CBF0A34A4B22046FFF7A9FF50B1A7
:1035000003212046FEF75AFD032804D12046BDE8DA
:103510001040FEF773BD002010BD000070B50C4CCC
:103520000C4E0D4D00212046FEF76EFF20460B4C41
:103530003246294600F060F801212046FEF764FF7C
:10354000324629462046BDE8704000F055B800BF1D
:103550003C0C002070000020F9230A084C0C0020CD
:1035600010B5074C2368DB0708D42046FCF79BFD09
:1035700020B1FEF773FD2046FCF79AFD014810BD0F
:10358000600C0020640C002013B5084C00231A4680
:10359000194600932046FFF7BFFC2046044A054920
:1035A00002B0BDE8104000F027B800BF680C002052
:1035B00070000020692E0A0838B50B4D296811F0FB
:1035C00001040FD12846FCF76EFD58B1214607488B
:1035D000FFF742FE2846FCF76BFD054A0549034804
:1035E00000F00AF8014838BD800C0020840C00204F
:1035F0007000002001320A080B460146184602F00E
:103600009DBCFCF74EBD08B5FEF7DEFE184B1A68F0
:10361000D1075CBF01221A60164B1A68D2075CBF43
:1036200001221A60144B1A68D0075CBF01221A608D
:10363000124B1A68D1075CBF01221A60104B1A683E
:10364000D2075CBF01221A600E4B1A68D0075CBF1C
:1036500001221A600C4B1A68D1075CBF01221A6064
:103660000A4B1A68D2075CBF01221A60704700BF7C
:10367000B40C0020B00C0020AC0C0020A80C0020E2
:10368000A40C0020A00C00209C0C0020980C002012
:10369000244B1A68D0075CBF01221A60224B1A68BB
:1036A000D1075CBF01221A60204B1A68D2075CBFA9
:1036B00001221A601E4B1A68D0075CBF01221A60F3
:1036C0001C4B1A68D1075CBF01221A601A4B1A689A
:1036D000D2075CBF01221A60184B1A68D0075CBF82
:1036E00001221A60164B1A68D1075CBF01221A60CA
:1036F000144B1A68D2075CBF01221A60124B1A6879
:10370000D0075CBF01221A60104B1A68D1075CBF5A
:1037100001221A600E4B1A68D2075CBF01221A60A0
:10372000704700BFE40C0020E00C0020DC0C0020FF
:10373000D80C0020D40C0020D00C0020CC0C002091
:10374000C80C0020C40C0020C00C0020BC0C0020C1
:10375000B80C0020244B1A68D0075CBF01221A6005
:10376000224B1A68D1075CBF01221A60204B1A68ED
:10377000D2075CBF01221A601E4B1A68D0075CBFDB
:1037800001221A601C4B1A68D1075CBF01221A6023
:103790001A4B1A68D2075CBF01221A60184B1A68CC
:1037A000D0075CBF01221A60164B1A68D1075CBFB4
:1037B00001221A60144B1A68D2075CBF01221A60FA
:1037C000124B1A68D0075CBF01221A60104B1A68AE
:1037D000D1075CBF01221A600E4B1A68D2075CBF8A
:1037E00001221A60704700BF140D0020100D002048
:1037F0000C0D0020080D0020040D0020000D0020FD
:10380000FC0C0020F80C0020F40C0020F00C002030
:10381000EC0C0020E80C0020184B1A68D1075CBFA4
:1038200001221A60164B1A68D2075CBF01221A6087
:10383000144B1A68D0075CBF01221A60124B1A6839
:10384000D1075CBF01221A60104B1A68D2075CBF17
:1038500001221A600E4B1A68D0075CBF01221A6061
:103860000C4B1A68D1075CBF01221A600A4B1A6818
:10387000D2075CBF01221A60704700BF340D0020E0
:10388000300D00202C0D0020280D0020240D0020DC
:10389000200D00201C0D0020180D002000F0F4B9B0
:1038A0002DE9F04F8DB006460F4614461D4600F038
:1038B000B7FADFF81093CDE9000199F90080B8F16B
:1038C000FF3F46D022462B462046294601F0DCFF2A
:1038D000834600283DD132463B463046394601F00A
:1038E000D3FF8246002874D1304639460022002397
:1038F00001F098FF002833D00022002320462946FB
:1039000001F090FF8346B8B1A94A012300200021AD
:10391000CDF828A0CDE90467CDE90645CDE9080139
:1039200003920293B8F1000F6CD0A24B0022104614
:1039300019460DB0BDE8F08F2046294601F03AFA4D
:1039400038B1002200232046294601F075FF0028E7
:103950006AD1DDE90023104619460DB0BDE8F08FAD
:10396000DDE9000101F026FA804600287DD0DDE97E
:1039700000014FF0000A4FF0000B52465B4601F089
:1039800051FF0028E5D03046394601F013FA0028EF
:10399000DFD02046294601F00DFA0028D9D099F948
:1039A0000030834804210022022BCDE90467CDE9D1
:1039B0000645CDE908AB039002910A9204D002A813
:1039C00001F0FEF9002847D1FEF70EFD2223036027
:1039D00042E0002200232046294601F023FF002870
:1039E000B7D0744B724800220121B8F1020FCDF814
:1039F00028B0CDE90467CDE90645CDE90823039059
:103A00000291A8D002A801F0DBF900287ED00A9B21
:103A100043B3FEF7E9FCDDE908230A99016010468B
:103A200019460DB0BDE8F08F614999F900300122C7
:103A3000CDF828B0CDE90467CDE90645039102929F
:103A4000002B68D05C490020022BCDE9080166D12B
:103A5000FEF7CAFC212303600A9B1BB1FEF7C4FCDE
:103A60000A9B0360DDE9082375E73046394601F01B
:103A7000A1F900283FF47BAF2046294601F09AF9CE
:103A800000283FF474AFDDE900231046194601F029
:103A9000FBFE00286FD1464B99F900800393032366
:103AA0000A90CDE90467CDE906450293B8F1000F0D
:103AB0003BD1DFF814B14FF0604A002200233046BA
:103AC0003946CDE908AB01F0B7FE00283FF477AFE7
:103AD00000223A4B2046294601F03CFC04460D46A4
:103AE00001F076F902460B462046294601F09AFE7F
:103AF00000283DD1324B4FF06042CDE9082399F9BF
:103B00000080B8F1020F7FF45AAF5DE7FEF76CFC5E
:103B1000212303607BE700230024CDE9083402A8B9
:103B200001F04EF9002897D192E7DFF8A0B04FF0EE
:103B3000000A0022002330463946CDE908AB01F0E7
:103B40007BFE0028DDD000221C4B2046294601F0D8
:103B500001FC04460D4601F03BF902460B462046A7
:103B6000294601F05FFE18B9134B0022CDE9082366
:103B700099F90080C5E70E4A99F900900123CDF824
:103B80002880CDE90467CDE9064503920293B9F197
:103B9000000FC0D0002200231046194601F004FD9A
:103BA000B9F1020FCDE908013FF452AFB7E700BF0A
:103BB000F0650A080000F03F0000F0FF0000E03F61
:103BC000FFFFEFC704000020FFFFEF470000F07F7A
:103BD0002DE9F04F8BB004460D4600F083FE284BD4
:103BE000064693F900A00F46BAF1FF3F12D02246D5
:103BF0002B462046294601F047FE834650B94FF038
:103C000000084FF000092046294642464B4601F085
:103C100013FE20B9304639460BB0BDE8F08F194A83
:103C20000123CDF820B0CDE90445CDE9024501924C
:103C30000093BAF1000F15D042464B464046494624
:103C400001F0B2FCBAF1020FCDE906010CD1FEF78A
:103C5000CBFB21230360089B63B9DDE906010BB0B0
:103C6000BDE8F08FCDE90689684601F0A9F8002883
:103C7000F1D1ECE7FEF7B8FB089B0360EDE700BF6E
:103C800004000020F4650A082DE9F84F544214435B
:103C900023F00049DFF880E149EAD4747445064610
:103CA0000D463ED84442044321F0004B4BEAD47405
:103CB00074458A4635D803F1404404F58014144312
:103CC00044D09C1704F0020444EAD17450EA0B017A
:103CD0002FD052EA090133D0F14546D0F3452FD019
:103CE000C9EB0B094FEA2959B9F13C0F34DC002B21
:103CF00057DB3046294601F057FC01F057F800F039
:103D0000B7FE012C4AD0022C3BD084B132A3D3E9B8
:103D1000002301F06BF932A3D3E9002301F066F927
:103D200005E01046194632462B4601F061F9BDE820
:103D3000F88F022C14D0032C0CD12D482D49F6E716
:103D4000BAF1000F2A480EDB2B49F0E7BDE8F84F27
:103D500000F08EBE2946EAE723A1D1E90001D0E7B1
:103D600023482649E3E72649E1E7CB451FD0022C4B
:103D7000F6D0032CE1D0012C4FF0000020D00146FA
:103D8000D5E715A3D3E9002301F030F902460B462D
:103D900013A1D1E9000101F029F9C8E701F10041BF
:103DA000C5E719F13C0FA4DA00200021A9E7022C95
:103DB0000ED0032C09D0012C0D4804D01149B6E7D0
:103DC0004FF00041B3E71049B1E710481049AEE7A2
:103DD0000E481049ABE700BF075C143326A6A13C90
:103DE000182D4454FB210940182D4454FB21F93F60
:103DF000182D4454FB2109C0FB21F93FFB21094048
:103E0000FB21F9BFFB21E93FFB21E9BFD221337F31
:103E10007CD902C07CD902400000F07F0000000085
:103E20002DE9F04F23F0004858EA020993B03CD046
:103E3000714C21F00046A64283460D460CDD06F18A
:103E4000404606F5801656EA0B0038D183466B498A
:103E5000584613B0BDE8F08F9A4696462BD0A04541
:103E6000EDDC654CA04578D0002D0F468146CDE9AC
:103E7000002376DB0024BEF1000F27D15E4B98456E
:103E800000F08B805D4B984552D0BAF1804F00F026
:103E9000C9835B4B9A4519D1002D17DB484639463B
:103EA00013B0BDE8F04F00F01DBDCB465846534956
:103EB00013B0BDE8F08F0028C1D1B045D1DD514825
:103EC00013B0BDE8F04F00F07DBF002448463946EE
:103ED00000F06CFFBBF1000F1CD0ED0F013D54EA68
:103EE000050370D0484B984540F3948003F1047368
:103EF000984540F30D84454B9E4270DDBAF1000FAA
:103F000070DD3BA3D3E900231046194601F022FAE5
:103F100083469DE726B1394B25F040429A42DCD1D9
:103F2000BAF1000FC0F2B783002D08DB83468FE79C
:103F3000BAF1000FC0F25E84CB46394688E706F13D
:103F4000404606F5801656EA040300F08384012CEF
:103F5000ECD101F1004183467AE7BEF1000F83D036
:103F60006DE72B4B98452CDCA3F15473984581DD0C
:103F70004FEA2853A3F2FF33142B40F35384C3F1C9
:103F800034032EFA03F202FA03F39E457FF472AF74
:103F900002F00102C2F102046DE706F1404303F5AD
:103FA000801353EA0B0300F03A83184B9E4240F310
:103FB0006783BAF1000F15DBDDE900349B4621462B
:103FC00046E7022457E74A4648463B46394601F051
:103FD0000DF802460B4601F0E7FA834638E7BAF1DE
:103FE000000F8EDB4FF0000B594631E7AFF3008036
:103FF0009C7500883CE4377E0000F07F0000F03FB5
:104000000000E03FF8650A080000E041FFFFEF3FD5
:10401000FFFF3F43B6F5801F4FF0000205DAD04B9B
:1040200001F098F90E466FF03402DFF844E33315DF
:10403000C6F31306A3F2FF3346F07F57764503EB32
:10404000020A47F4401740F3C983C64B00229E4240
:1040500040F304840023CDE90823CDE90C23C24BAF
:104060000022CDE906230AF1010AA7F580170026F0
:104070003946DDE90623CDE90A0100F0B7FFDDE9A5
:10408000062380468946DDE90A0100F0B1FF0246B9
:104090000B460020B44901F087FA0A460146134650
:1040A000CDE90E1202464946404601F053F98C46CE
:1040B00083467B1043F0005303F500239919002039
:1040C000CDE904BC06460F464FF0000B614658464A
:1040D00032463B46CDE910BCCDE9020101F03AF988
:1040E00002460B464046494600F080FFDDE90623C4
:1040F000804689463046394600F078FF02460B4636
:10410000DDE90A0100F072FFDDE9022301F022F986
:1041100002460B464046494600F068FFDDE90E23A3
:1041200001F018F9DDE90478CDE906013A46434685
:104130003846414601F00EF977A3D3E9002306463D
:104140000F4601F007F976A3D3E9002300F050FFF2
:1041500032463B4601F0FEF873A3D3E9002300F09A
:1041600047FF32463B4601F0F5F871A3D3E900233F
:1041700000F03EFF32463B4601F0ECF86EA3D3E977
:10418000002300F035FF32463B4601F0E3F86CA314
:10419000D3E9002300F02CFF3246804689463B4697
:1041A0003046394601F0D6F802460B4640464946AD
:1041B00001F0D0F8DDE9022306460F46DDE90401EF
:1041C00000F016FFDDE9062301F0C4F832463B4655
:1041D00000F00EFFDDE902678046894632463B4625
:1041E0003046394601F0B6F80022604BCDE90A01AD
:1041F00000F0FEFE42464B4600F0FAFEDDE910BC40
:104200000F46DDE902015A463B46CDE90EBC5E464B
:1042100001F0A0F80022CDE90201544B30463946A6
:1042200000F0E4FEDDE90A2300F0E0FE02460B4662
:104230004046494600F0DAFEDDE9042301F08AF841
:10424000324680468946DDE906013B4601F082F8A8
:1042500002460B464046494600F0CAFE8046894663
:1042600002460B46DDE9020100F0C2FEDDE90EBCAC
:1042700035A3D3E900235846CDE906BC5E460F4678
:1042800001F068F8DDE90223CDE904013046394642
:1042900000F0ACFE02460B464046494600F0A6FE42
:1042A0002BA3D3E9002301F055F82BA3D3E9002376
:1042B000804689463046394601F04CF802460B46A6
:1042C0004046494600F094FEDDE90C2300F090FEE4
:1042D00080465046894600F0D7FF06460F46DDE986
:1042E000040142464B4600F083FEDDE9082300F05E
:1042F0007FFE32463B4600F07BFEDDE906BC3246DF
:1043000058463B46DA468B4600F070FEDDE908234E
:1043100030E000BFAFF30080EF4E454A287ECA3F31
:1043200065DBC9934A86CD3F01411DA96074D13F29
:104330004D268F515555D53FFFAB6FDBB66DDB3F3B
:10434000033333333333E33F000000E009C7EE3F6C
:10435000FD033ADC09C7EE3FF5015B14E02F3EBEDA
:104360000000404379B60B000000F03F0000084019
:104370008E98030000F03AFEDDE9042300F036FEDB
:1043800002460B464046494600F030FE80468946CC
:10439000DDE90012013C54EA050314BFD64CD74CAA
:1043A0000023CDE904340B461446CDE90234002342
:1043B0000293DDE9024508462B461146224600F0ED
:1043C00015FE52465B4600F0C5FFDDE900230646B8
:1043D0000F464046494600F0BDFF02460B463046B8
:1043E000394600F005FE06460F4622462B4650464B
:1043F0005946CDE9006700F0ADFF0B460246804606
:1044000089463046394600F0F3FDBD4B06469942D9
:104410000D460C4640F30E8101F13F4303F5E003E6
:10442000034340F0F081A0A3D3E90023DDE90001BC
:1044300000F0DEFD424682468B464B46304629461A
:1044400000F0D4FD02460B465046594601F012FAE0
:10445000002840F0D8812F463B154FF48012A3F27C
:10446000FE3342FA03F32344C3F30A52A54EA2F2E9
:10447000FF321641C3F3130B0020C2F1140523EAE7
:1044800006014BF4801B02460B46002C4BFA05FB41
:1044900040464946B8BFCBF1000B00F0A7FD0246ED
:1044A0000B4680468946DDE9000100F0A1FD4FEA98
:1044B0000B5A00247EA3D3E9002320460D4600F0CA
:1044C00049FF424606460F464B462046294600F025
:1044D0008DFD02460B46DDE9000100F087FD76A365
:1044E000D3E9002300F036FF75A3D3E9002380460B
:1044F00089462046294600F02DFF02460B464046DD
:10450000494600F075FD8046894602460B46304616
:10451000394600F06DFD32463B4604460D4600F03C
:1045200065FD02460B464046494600F05FFD2246C7
:10453000804689462B462046294600F00BFF62A3A1
:10454000D3E9002306460F4600F004FF60A3D3E939
:10455000002300F04BFD32463B4600F0FBFE5EA31D
:10456000D3E9002300F044FD32463B4600F0F2FE62
:104570005BA3D3E9002300F039FD32463B4600F04F
:10458000E9FE59A3D3E9002300F032FD32463B4651
:1045900000F0E0FE02460B462046294600F026FDCC
:1045A00006460F4602460B462046294600F0D2FE3C
:1045B0000022CDE900014FF080433046394600F03B
:1045C00015FD02460B46DDE9000100F0EDFF424615
:1045D00006460F464B462046294600F0BBFE4246A3
:1045E0004B4600F005FD02460B463046394600F0CA
:1045F000FDFC22462B4600F0F9FC02460B4600204B
:104600003D4900F0F3FC8A44BAF5801FC0F23781BF
:104610005146DDE9042300F09DFE834618E4F3468D
:10462000354915E44A4648463B46394600F092FE75
:1046300083460DE4344B21F000479F4240F3018153
:10464000324B0B4403430CD142464B4600F0CEFCA8
:1046500002460B46DDE9000101F0F8F800283FF4BE
:10466000FBAE23A3D3E90023DDE9040100F072FED1
:104670001FA3D3E9002300F06DFE8346FFF7E8BBDC
:10468000BAF1000FBFF6AEACDDE900349B4604F191
:104690000041FFF7DDBB02460B460020164900F043
:1046A00083FF41E4AFF30080FE822B654715973C02
:1046B00000000000432EE63FEF39FAFE422EE63FAF
:1046C000396CA80C615C20BED0A4BE726937663E0E
:1046D000F16BD2C541BDBB3E2CDE25AF6A56113F02
:1046E00093BDBE166CC1663F3E5555555555C53FE9
:1046F00059F3F8C21F6EA5010000F03F0000F0BFA3
:10470000FFFF8F40FFFF0F00FFCB904000346F3F53
:104710006F4B9E427FF763AC6E4B9E423FF7EEAB12
:1047200000226C4B00F062FC5BA3D3E90023064639
:104730000F4600F00FFE5AA3D3E9002380468946B6
:104740003046394600F006FE002282468B46624B18
:104750003046394600F0FEFD02460B4652A1D1E933
:10476000000100F043FC32463B4600F0F3FD0246F8
:104770000B460020594900F039FC3246CDE90201D0
:104780003B463046394600F0E5FD02460B46DDE982
:10479000020100F0DFFD46A3D3E9002300F0DAFDBB
:1047A00002460B465046594600F020FC02460B4696
:1047B00006460F464046494600F01AFC42464B4624
:1047C000002082468B4600F011FC02460B46304624
:1047D000394600F00BFC80468946D9E500220023CB
:1047E000CDE90823CDE90C233A4B00220026CDE980
:1047F00006233DE44A463B460020364900F0D4FEFD
:104800008346FFF725BB2CA3D3E90023DDE9040190
:1048100000F0A0FD28A3D3E9002300F09BFD834610
:10482000FFF716BBBEF1000F7FF44FABC3F11403CB
:1048300048FA03F202FA03F3984524D07446FFF7CE
:1048400021BB264B9F423FF707AEDDE902349A4673
:104850009B462EE602460B46FFF7B9BB204B4FF4B2
:104860008026CDE9062316A3D3E90023CDE908234A
:1048700015A3D3E90023CDE90C23FFF7F9BB5A4672
:1048800000F036FBC5E602F00102C2F10204FFF7B8
:10489000F9BA00BFAFF30080000000604715F73F92
:1048A00044DF5DF80BAE543E555555555555D53F33
:1048B000FE822B654715F73F9C7500883CE4377EE8
:1048C0000000004003B8E23F06D0CF43EBFD4C3E72
:1048D000FEFFEF3F0000F03F0000D03F0000E03F50
:1048E0000000F83F2DE9F0415F4E0C46B6460E4001
:1048F0007645054600F0988000290B46024674DD97
:104900005FEA215E7FD0AEF2FF3EC3F313031EF0D9
:10491000010F43F4801363D100273E4603EBD271AD
:104920000B444FEA6E0E520016204FF4001174181B
:104930009C424FEAD2754FEA420202DC1B1B66180A
:104940000F44013805EB43034FEA5101EFD1844690
:1049500020244FF0004109E020D003EBD275013C48
:104960004FEA51012B444FEA420220D09E4201EB14
:104970000C05F1DA002D05EB010C09DBB046954280
:10498000A3EB060300D9013B4646521B0844E4E76B
:10499000BCF1000FF2DB06F10108F0E7954217D8F1
:1049A000002D05EB010C49DB98460023ECE713438F
:1049B00010D140087B1003F17F5303F50013FA0771
:1049C00003EB0E57394648BF40F00040BDE8F08188
:1049D0003346C2E7411C35D000F001031844E8E734
:1049E0005B0003EBD273520096E721F000460643CA
:1049F000ECD079BB8E46D30AAEF1150E5205002BD2
:104A0000F9D0DD0221D4002100E001465B00DC0288
:104A100001F10100F9D5C0F1200422FA04F4234386
:104A2000C1EB0E0E82406EE702460B4600F092FC90
:104A30002A46234600F0DCFABDE8F081BCF1000F05
:104A4000A9DAB1E701372046B4E720244FF0FF315F
:104A50000020E2E702460B4600F0C8FA02460B4689
:104A600000F0A2FDB2E700BF0000F07F00000000F0
:104A70002DE9F84FC04B21F000469E420D468A4674
:104A800004460FDDBD4B9E4200F3B28000F0AD80C6
:104A9000BB4BBC49BC4CBAF1000FC8BF19462046FD
:104AA000BDE8F88FB94B9E4200F3BC80A3F1DE73E2
:104AB0009E4240F3A7804FF0FF3B22462B46204604
:104AC000294600F047FC02460B468046894600F026
:104AD00041FC91A3D3E9002306460F4600F03AFCBF
:104AE0008FA3D3E9002300F083FA32463B4600F05F
:104AF00031FC8DA3D3E9002300F07AFA32463B461D
:104B000000F028FC8AA3D3E9002300F071FA3246B2
:104B10003B4600F01FFC88A3D3E9002300F068FAAD
:104B200032463B4600F016FC85A3D3E9002300F093
:104B30005FFA42464B4600F00DFC83A3D3E9002305
:104B4000804689463046394600F004FC80A3D3E90C
:104B5000002300F04BFA32463B4600F0FBFB7EA3FD
:104B6000D3E9002300F042FA32463B4600F0F2FB64
:104B70007BA3D3E9002300F039FA32463B4600F02C
:104B8000E9FB79A3D3E9002300F030FA32463B4633
:104B900000F0E0FBBBF1FF3F02460B4669D0404608
:104BA000494600F025FA22462B4600F0D3FB784E0A
:104BB000784B4FEACB0B5E449B44DBE9002300F0CB
:104BC00015FA22462B4600F011FA02460B46D6E9AA
:104BD000000100F00BFABAF1000F0446BFF65FAF18
:104BE00001F100412046BDE8F88F00283FF450AFA6
:104BF000224620462B46294600F0FAF90446204674
:104C0000BDE8F88F5AA3D3E9002300F0F1F90022A0
:104C1000614B00F02FFE00283FF44DAF294620469F
:104C2000BDE8F88F00F0C2F85C4B04469E420D468A
:104C30002FDCA3F550239E4254DC02460B4600F0C5
:104C4000D7F90022544B00F0D1F9002206460F4656
:104C50004FF080432046294600F0CAF902460B4631
:104C60003046394600F0A0FC4FF0000B04460D46DC
:104C700023E74046494600F0BBF922462B4600F0A8
:104C800069FB02460B462046294600F0AFF9044670
:104C900005E7434B9E421ADC0022424B00F0A6F986
:104CA000002206460F463F4B2046294600F052FBA5
:104CB0000022394B00F09CF902460B46304639463B
:104CC00000F072FC4FF0020B04460D46F5E602467A
:104CD0000B460020344900F067FC4FF0030B0446FC
:104CE0000D46EAE600222C4B00F080F90022064631
:104CF0000F46294B2046294600F07AF902460B461A
:104D00003046394600F050FC4FF0010B04460D468A
:104D1000D3E600BFAFF3008011DA22E33AAD903F53
:104D2000EB0D76244B7BA93F513DD0A0660DB13FE2
:104D30006E204CC5CD45B73FFF8300922449C23F4A
:104D40000D5555555555D53F2F6C6A2C44B4A2BF0F
:104D50009AFDDE522DDEAD3F6D9A74AFF2B0B33FD7
:104D6000711623FEC671BC3FC4EB98999999C93F4F
:104D70009C7500883CE4377EFFFF0F440000F07F05
:104D8000FB21F93FFB21F9BF182D4454FFFFDB3F06
:104D900020660A0800660A080000F03FFFFFF23FA5
:104DA000FF7F03400000F83F0000F0BF21F000410A
:104DB000704700BF41F0004101F58010C00F7047FF
:104DC0000020704700200149704700BF0000F87FB5
:104DD000F0B5C1F30A5EAEF2FF36132E83B0024681
:104DE0000B460C464FEAD17507462EDC002E49DBF8
:104DF0003D49314103EA010010432BD049080B40E3
:104E000053EA02070CD04FF48023132E24EA010149
:104E100043FA06F444EA01040CBF4FF000470027B0
:104E2000324B214603EBC505D5E9004538462246FD
:104E30002B4600F0DDF8CDE90001DDE90001224656
:104E40002B4600F0D3F803B0F0BD332E06DDB6F5E7
:104E5000806F45D01046194603B0F0BDAEF2134E38
:104E60004FF0FF3121FA0EF10842F3D04908084211
:104E7000D6D04FF0804320EA010143FA0EFE4EEAFD
:104E80000107CDE721F0004101431946E4D0C3F307
:104E9000130343EA000CCCF1000343EA0C0C134B60
:104EA000640C4FEA1C3C0CF4002C03EBC5036404B7
:104EB000D3E900674CEA040132463B4600F098F81B
:104EC000CDE90001DDE9000132463B4600F08EF8F5
:104ED000024621F0004141EAC57310461946BBE77E
:104EE00000F086F8B8E700BFFFFF0F0040660A0831
:104EF000F8B5C1F30A5604460D460B46174606BBE5
:104F000021F00043034325D000222F4B00F022FA6A
:104F10002E4A044697420D460B462ADBC1F30A5639
:104F2000363E40F2FE723E44964228DC002E12DDF0
:104F300023F0FF4323F4E00343EA065520462946C5
:104F4000F8BD40F2FF729642EBD102460B4600F0EC
:104F50004FF8F8BDF8BD16F1350F1DDA4CF250339D
:104F60009F420CDC14A1D1E9000122462B4600F03F
:104F700031F811A3D3E9002300F0ECF9F8BD224683
:104F80000FA1D1E900012B4600F024F80CA3D3E9CE
:104F9000002300F0DFF9F8BD23F0FF4323F4E00322
:104FA000363643EA0655204629460022084B00F0D3
:104FB000D1F9F8BDAFF3008059F3F8C21F6EA50117
:104FC0009C7500883CE4377E00005043B03CFFFFF6
:104FD0000000903C03F0004321F0004242EA03014C
:104FE000704700BF81F0004102E000BF83F0004342
:104FF00030B54FEA41044FEA430594EA050F08BF74
:1050000090EA020F1FBF54EA000C55EA020C7FEA37
:10501000645C7FEA655C00F0E2804FEA5454D4EBB4
:105020005555B8BF6D420CDD2C4480EA020281EA7E
:10503000030382EA000083EA010180EA020281EAB6
:105040000303362D88BF30BD11F0004F4FEA013108
:105050004FF4801C4CEA113102D0404261EB410117
:1050600013F0004F4FEA03334CEA133302D052429D
:1050700063EB430394EA050F00F0A780A4F1010459
:10508000D5F1200E0DDB02FA0EFC22FA05F2801893
:1050900041F1000103FA0EF2801843FA05F3594179
:1050A0000EE0A5F120050EF1200E012A03FA0EFCF8
:1050B00028BF4CF0020C43FA05F3C01851EBE37122
:1050C00001F0004507D54FF0000EDCF1000C7EEB3F
:1050D00000006EEB0101B1F5801F1BD3B1F5001F7D
:1050E0000CD349085FEA30004FEA3C0C04F101049C
:1050F0004FEA445212F5800F80F09A80BCF1004FC5
:1051000008BF5FEA500C50F1000041EB045141EA46
:10511000050130BD5FEA4C0C404141EB010111F447
:10512000801FA4F10104E9D191F0000F04BF0146F2
:105130000020B1FA81F308BF2033A3F10B03B3F1D0
:1051400020020CDA0C3208DD02F1140CC2F10C0260
:1051500001FA0CF021FA02F10CE002F11402D8BFBE
:10516000C2F1200C01FA02F120FA0CFCDCBF41EA8A
:105170000C019040E41AA2BF01EB0451294330BD59
:105180006FEA04041F3C1CDA0C340EDC04F1140436
:10519000C4F1200220FA04F001FA02F340EA03000D
:1051A00021FA04F345EA030130BDC4F10C04C4F153
:1051B000200220FA02F001FA04F340EA0300294633
:1051C00030BD21FA04F0294630BD94F0000F83F47D
:1051D000801306BF81F480110134013D4EE77FEA60
:1051E000645C18BF7FEA655C29D094EA050F08BFAC
:1051F00090EA020F05D054EA000C04BF194610468D
:1052000030BD91EA030F1EBF0021002030BD5FEAD0
:10521000545C05D14000494128BF41F0004130BDF8
:1052200014F580043CBF01F5801130BD01F000454C
:1052300045F0FE4141F470014FF0000030BD7FEABF
:10524000645C1ABF194610467FEA655C1CBF0B46BA
:10525000024650EA013406BF52EA033591EA030FD1
:1052600041F4002130BD00BF90F0000F04BF0021C9
:10527000704730B54FF4806404F132044FF00005FC
:105280004FF0000150E700BF90F0000F04BF002175
:10529000704730B54FF4806404F1320410F00045DB
:1052A00048BF40424FF000013EE700BF42004FEAD6
:1052B000E2014FEA31014FEA02701FBF12F07F4353
:1052C00093F07F4F81F06051704792F0000F14BF50
:1052D00093F07F4F704730B54FF4607401F0004594
:1052E00021F0004120E700BF50EA010208BF7047EB
:1052F00030B54FF000050AE050EA010208BF7047E0
:1053000030B511F0004502D5404261EB41014FF448
:10531000806404F132045FEA915C3FF4DCAE4FF04C
:1053200003025FEADC0C18BF03325FEADC0C18BF33
:10533000033202EBDC02C2F1200300FA03FC20FA84
:1053400002F001FA03FE40EA0E0021FA02F11444D1
:10535000C1E600BF70B54FF0FF0C4CF4E06C1CEAE6
:1053600011541DBF1CEA135594EA0C0F95EA0C0F5B
:1053700000F0DEF82C4481EA030621EA4C5123EACE
:105380004C5350EA013518BF52EA033541F48011FD
:1053900043F4801338D0A0FB02CE4FF00005E1FBB0
:1053A00002E506F00042E0FB03E54FF00006E1FBFA
:1053B00003569CF0000F18BF4EF0010EA4F1FF043D
:1053C000B6F5007F64F5407404D25FEA4E0E6D417D
:1053D00046EB060642EAC62141EA55514FEAC5208E
:1053E00040EA5E504FEACE2EB4F1FD0C88BFBCF50A
:1053F000E06F1ED8BEF1004F08BF5FEA500E50F1BB
:10540000000041EB045170BD06F0004646EA010180
:1054100040EA020081EA0301B4EB5C04C2BFD4EBB2
:105420000C0541EA045170BD41F480114FF0000EAB
:10543000013C00F3AB8014F1360FDEBF002001F019
:10544000004170BDC4F10004203C35DA0C341BDC93
:1054500004F11404C4F1200500FA05F320FA04F065
:1054600001FA05F240EA020001F0004221F0004199
:1054700010EBD37021FA04F642EB06015EEA430E0C
:1054800008BF20EAD37070BDC4F10C04C4F120053C
:1054900000FA04F320FA05F001FA04F240EA0200EF
:1054A00001F0004110EBD37041F100015EEA430EC0
:1054B00008BF20EAD37070BDC4F1200500FA05F2E0
:1054C0004EEA020E20FA04F301FA05F243EA02035F
:1054D00021FA04F001F0004121FA04F220EA02006E
:1054E00000EBD3705EEA430E08BF20EAD37070BDB4
:1054F00094F0000F0FD101F00046400041EB010194
:1055000011F4801F08BF013CF7D041EA060195F075
:10551000000F18BF704703F00046520043EB03032F
:1055200013F4801F08BF013DF7D043EA060370471C
:1055300094EA0C0F0CEA135518BF95EA0C0F0CD027
:1055400050EA410618BF52EA4306D1D181EA03016D
:1055500001F000414FF0000070BD50EA410606BF67
:105560001046194652EA430619D094EA0C0F02D1AC
:1055700050EA013613D195EA0C0F05D152EA0336F1
:105580001CBF104619460AD181EA030101F000410F
:1055900041F0FE4141F470014FF0000070BD41F058
:1055A000FE4141F4780170BD70B54FF0FF0C4CF432
:1055B000E06C1CEA11541DBF1CEA135594EA0C0F51
:1055C00095EA0C0F00F0A7F8A4EB050481EA030E9E
:1055D00052EA03354FEA013100F088804FEA033385
:1055E0004FF0805545EA131343EA12634FEA022253
:1055F00045EA111545EA10654FEA00260EF0004114
:105600009D4208BF964244F1FD0404F5407402D265
:105610005B084FEA3202B61A65EB03055B084FEAF6
:1056200032024FF480104FF4002CB6EB020E75EBF3
:10563000030E22BFB61A754640EA0C005B084FEA1B
:105640003202B6EB020E75EB030E22BFB61A754698
:1056500040EA5C005B084FEA3202B6EB020E75EBE3
:10566000030E22BFB61A754640EA9C005B084FEA5B
:105670003202B6EB020E75EB030E22BFB61A754668
:1056800040EADC0055EA060E18D04FEA051545EA57
:1056900016754FEA06164FEAC30343EA52734FEA00
:1056A000C2025FEA1C1CC0D111F4801F0BD141EA79
:1056B00000014FF000004FF0004CB6E711F4801FDE
:1056C00004BF01430020B4F1FD0C88BFBCF5E06FBE
:1056D0003FF6AFAEB5EB030C04BFB6EB020C5FEACE
:1056E000500C50F1000041EB045170BD0EF0004E23
:1056F0004EEA113114EB5C04C2BFD4EB0C0541EA55
:10570000045170BD41F480114FF0000E013C90E651
:1057100045EA060E8DE60CEA135594EA0C0F08BF15
:1057200095EA0C0F3FF43BAF94EA0C0F0AD150EA14
:1057300001347FF434AF95EA0C0F7FF425AF1046A7
:1057400019462CE795EA0C0F06D152EA03353FF4CF
:10575000FDAE1046194622E750EA410618BF52EA4C
:1057600043067FF4C5AE50EA41047FF40DAF52EA20
:1057700043057FF4EBAE12E74FF0FF3C06E000BFBD
:105780004FF0010C02E000BF4FF0010C4DF804CDCA
:105790004FEA410C7FEA6C5C4FEA430C18BF7FEA8A
:1057A0006C5C1BD001B050EA410C0CBF52EA430CB8
:1057B00091EA030F02BF90EA020F0020704710F138
:1057C000000F91EA030F58BF994208BF90422CBFC7
:1057D000D8176FEAE37040F0010070474FEA410CC0
:1057E0007FEA6C5C02D150EA013C07D14FEA430CDE
:1057F0007FEA6C5CD6D152EA033CD3D05DF8040B4F
:10580000704700BF8446104662468C461946634680
:1058100000E000BF01B5FFF7B7FF002848BF10F157
:10582000000F01BD4DF808EDFFF7F4FF0CBF01209C
:1058300000205DF808FB00BF4DF808EDFFF7EAFF18
:1058400034BF012000205DF808FB00BF4DF808EDD3
:10585000FFF7E0FF94BF012000205DF808FB00BFC8
:105860004DF808EDFFF7CEFF94BF012000205DF852
:1058700008FB00BF4DF808EDFFF7C4FF34BF01205F
:1058800000205DF808FB00BF4FEA410C7FEA6C5C2A
:1058900002D150EA013C0AD14FEA430C7FEA6C5C2A
:1058A00002D152EA033C02D14FF0000070474FF0A2
:1058B000010070474A0011D212F5001211D20DD525
:1058C0006FF47873B3EB62520ED44FEAC12343F006
:1058D000004343EA505323FA02F070474FF00000B0
:1058E000704750EA013002D14FF0FF3070474FF05F
:1058F000000070474FEA4102B2F1E04324BFB3F524
:10590000001CDCF1FE5C0DD901F0004C4FEAC00236
:105910004CEA5070B2F1004F40EB830008BF20F01A
:105920000100704711F0804F21D113F13872BCBFD4
:1059300001F00040704741F480114FEA5252C2F129
:105940001802C2F1200C10FA0CF320FA02F018BF72
:1059500040F001004FEAC1234FEAD32303FA0CFCC5
:1059600040EA0C0023FA02F34FEA4303CCE77FEA54
:10597000625307D150EA01331EBF4FF0FE4040F49E
:105980004000704701F0004040F0FE4040F400004D
:10599000704700BF80F0004002E000BF81F000418E
:1059A00042001FBF5FEA410392EA030F7FEA226CC5
:1059B0007FEA236C6AD04FEA1262D2EB1363C1BF55
:1059C000D218414048404140B8BF5B42192B88BFC4
:1059D000704710F0004F40F4000020F07F4018BFE7
:1059E000404211F0004F41F4000121F07F4118BF07
:1059F000494292EA030F3FD0A2F1010241FA03FCAF
:105A000010EB0C00C3F1200301FA03F100F0004396
:105A100002D5494260EB4000B0F5000F13D3B0F15E
:105A2000807F06D340084FEA310102F10102FE2ACD
:105A300051D2B1F1004F40EBC25008BF20F001003D
:105A400040EA03007047490040EB000010F4000FEB
:105A5000A2F10102EDD1B0FA80FCACF1080CB2EB7E
:105A60000C0200FA0CF0AABF00EBC25052421843DD
:105A7000BCBFD0401843704792F0000F81F4000182
:105A800006BF80F400000132013BB5E74FEA410355
:105A90007FEA226C18BF7FEA236C21D092EA030FC1
:105AA00004D092F0000F08BF0846704790EA010F3B
:105AB0001CBF0020704712F07F4F04D1400028BF68
:105AC00040F00040704712F100723CBF00F500004A
:105AD000704700F0004343F0FE4040F40000704780
